:020000040000fa
:080000000001040000000000f3
:020000040000fa
:10020000efae21000e7f22000e01880000000000ea
:100210000c000700e0082400010020001100070086
:10022000000020000000e000020032000000020098
:10023000000000002a3d0200000000000040da003b
:100240000000fe004440a900403b20000000e00008
:100250000300320000002000a00188004440a800f4
:100260000000060091018800800078000000eb008b
:1002700015003700e280400032a0b4009101ba00be
:10028000e280400032a0b4009102ba00e280400057
:1002900032a0b4000002eb00472bde00f507b200ed
:1002a000602ce10004003a000059eb008301e900f2
:1002b000fdff3e00040037006128e100010032002c
:1002c0000082eb00040007001101ba000200e00008
:1002d000e8ff3a00000006003159ba008301e90046
:1002e0000c0032002159ba008301e90008003200f5
:1002f0000400e00003003a00e280400032a0b400b5
:10030000f5ff370011d9ba008301e900faff3a007e
:100310008100e800e180400032a0b4000000060047
:100320000040da000000fe00800078001106b100f5
:10033000030035009101b10001003c000050a10014
:10034000000006001004b100030035009001b10068
:1003500001003c001000050000000500800078004e
:100360001104b100030035009101b10001003c000f
:100370000050a000000006001004b1000700350086
:100380009001b100040034007000b100030035009a
:100390009001b10001003c001000050000000500c4
:1003a0006900e100040035006d00e1000300340045
:1003b0000002b1000100320000000500100005003d
:1003c0000a00fa0080017800e20f500028003e0089
:1003d00060d78000e10f500008003200e0212000cb
:1003e0000000e0000500320064212000852120008b
:1003f000a62120008001780004003700c4202000de
:10040000e520200006212000432120001440900018
:100410000004e000040035008009eb001440900067
:100420000074a00010429800154090000028a3001e
:1004300003003a00154090000024a000904298006c
:100440008001eb0007003700154090000008a30072
:10045000fdff320063c078000000fb00000b780055
:100460008301e800828f5100f7ff3a00080037004f
:1004700030002000b0bf9f00c3bf9f00d1bf9f00ce
:10048000e2bf9f006a80570000c0da006fb9970092
:10049000020078000080fa00000006000a00fa005e
:1004a000881f7800800178000000e00029003a00f1
:1004b00060d78000e10f500008003200e0212000ea
:1004c0000000e000050032006421200085212000aa
:1004d000c72120008001780004003700c4202000dc
:1004e000e520200027212000432120001440900017
:1004f0000004e000040035008009eb001440900087
:100500000074a000104298000002eb000c003700bd
:10051000130a2000154478006140640002003a008c
:100520008301e900fbff3a000402e80095417800ee
:1005300061c0610005003200170078008058780023
:1005400004035100820f5200f1ff3a0006005100ef
:100550000800370020002000a0bf9f00b3bf9f000d
:10056000c1bf9f00d2bf9f006c80570000c0da005f
:100570005fb897004f0478000080fa000000060082
:10058000020ab900001bb9000200b8008100420055
:100590008100430000000600889fbe008a9fbe00c5
:1005a000010578000100e0000400350008003c006f
:1005b0000000e0002000320005003700600010005d
:1005c000e080180002003b0001f02c001a00370008
:1005d0000004be006011b8006b0920000982cf0042
:1005e000020039000882cf000441b0006942520085
:1005f0000e00320008003b0082817100610164003e
:100600008904d1000884d3008b05e8000442e80087
:10061000f9ff3a00050037000804440089844c00c3
:100620008b05e9000442e900fbff3a007c0107006a
:100630000af0a70001f0a0004f05be004f04be0065
:1006400000000600140020009b013700839f680013
:100650000100e00002003d0060001000e080180092
:100660000300e00002003d0060011100e08119007c
:10067000ac0107004f00e00002003b0060001000ea
:10068000e080180000000600889fbe008a9fbe0020
:100690008c1f78000004be00b20107000478a3009c
:1006a00026003a006120e1002500320009f8a3008d
:1006b00025003a006420e10021003200f507b10076
:1006c0000508a300020032000000400081804800bd
:1006d0006044b80003102000020020000000400029
:1006e000818048000805440089854c000a054100c6
:1006f0008b8549000a0550008b85580003003300a4
:100700000a00be0002047400838474008301d100d7
:100710000281d300830f7100f0ff3a008904d100f9
:100720000884d3006001490082017800c1adde0079
:10073000fb07b0003a010700a80137000960a000dc
:100740000800be00a50137001202200092cf8800e9
:10075000f0ff2f00f1ff2700a0013700889fbe00a7
:100760008a9fbe008c1f7800a301070010022000a2
:1007700002003b0090cf88008f0137008a006200a2
:100780006408e10002003a0090cf8800970137002a
:100790006108e100fcff32000800be00030478009d
:1007a000c200070001f0a1009b01070008f0a600ad
:1007b000040037000001be0091042400b0fd2000b9
:1007c0003700070009f0a70001f0a20083013700fd
:1007d000889fbe008a9fbe008c1f7800860107009c
:1007e0007501330003866c006450e1002400320080
:1007f0006420e100270032006150e1002200320055
:100800006120e100210032008b854200eb07b1003e
:100810000134b800003ab8000804420089844a0054
:10082000013ab8000030b8008880400009014a0051
:1008300004003300000040008180480002014900ac
:100840008b05e900c909dd00830170000100320059
:1008500013002000c814de004814dd004709de0044
:100860001200b200c808de0008847000ec00070027
:1008700001f0a1000cf0a70001f0a0005701370023
:100880006120e100590132000801be000200be00f3
:10089000f7ff37006150e100fcff3a0053013700d9
:1008a00003f0a200889fbe008a9fbe008c1f7800c4
:1008b00051010700400133006450e1004f00320055
:1008c0006420e1005200320003826c0007003b000c
:1008d0000905d0000306d000820f54000c065d000d
:1008e0000200390002003200890178000306780016
:1008f0008582550004003d000003fd008103fd00da
:100900008502ea008b854200840f720002003b00e2
:1009100060001000e08018006011b8000005eb00d6
:100920007a28e1000a00390006007800c75ddd0082
:10093000f707b200878075002d00370082817100b3
:100940000a017800610560008180d1000080d30039
:100950008502e900f9ff3b00060440008784480057
:1009600002003b0060041400e0841c000988a3001e
:10097000070032008a817100828171006101640088
:100980008904d1000884d3008b05e80017003700e4
:100990000978a30013003a000b00e00013003400b4
:1009a0008b05e9000804440089844c000a44740063
:1009b0000978a3000d003a000b00e00007003400a6
:1009c0008b05e9000804440089844c0001003a00ca
:1009d0000b0020000978a300f7ff32000001eb00b4
:1009e00002003700828171000a0178008c00070044
:1009f0000cf0a70001f0a000f80037006420e1002f
:100a000002003a00838f6c00f80033000801be003a
:100a10000200be00f1003700f4ff2f00a6003700ef
:100a20000001be00cf0007000470a70003f0a10082
:100a30006509b100160032000d0035006828e1009c
:100a400006003500f0ff2f00f1ff27000300e00053
:100a500013003b00010028000000050000004000da
:100a6000818048008502e900fcff3a000800370059
:100a7000f88f420002003c008000eb0000000500ff
:100a80008100d1000080d3008502e800fcff3a001d
:100a90000300e00002003b0060001000e08018004e
:100aa000000006000400200083003700889fbe007d
:100ab0008a9fbe008c1f7800cf000700be00330065
:100ac00003866c006450e1002e0032006420e100d7
:100ad000330032006150e1002f0032006120e1005c
:100ae0003100320085855500eb07b0000900200079
:100af00008042000050037000804440089844c00e5
:100b00000a0031000603430087834b0000015300b5
:100b100081815b00f8ff33000203be000800a000e3
:100b20000804440089844c00f6ff3900c639dd0012
:100b30008301730001003200130020008904d100fa
:100b40000884d3000998a300050032000800a7001c
:100b50000300a0008904d1000884d3008b05e800bd
:100b60008904d1000884d3000001eb000281d20087
:100b70002b00070001f0a1000cf0a70001f0a0007d
:100b8000960037006420e100980032000801be00a2
:100b90000200be00f7ff37006120e1009300320041
:100ba0006000b800f3ff37000000200001f82700c4
:100bb000f0ff37000001be006a0007000470a700c4
:100bc00003f0a10003f8a30013003a006509b10087
:100bd00010003200090035006928e10002003500ec
:100be000010028000000050000004000818048004e
:100bf0008502e900fcff3a0000000600f88f420081
:100c0000050035008100d1000080d3008502e80096
:100c1000fcff3a00000006008000eb000000050029
:100c200081002000618055000b003d000b0020007a
:100c300061fe2f000100e1001d003400828171007f
:100c4000610164008904d1000884d3000000e80039
:100c5000faff3a0071002000610064000300700098
:100c6000020060000900320061044400e0844c008e
:100c70000988a500050032008b05e8006808e1003e
:100c800002003a008904d1000884d300f20f20004a
:100c90000258e10005003d00c75ddd00f907b20024
:100ca0008980750008007800000006000bf8270016
:100cb0008b00780000000500889fbe008a9fbe0060
:100cc000841f78004c0007004f00780011003300ab
:100cd000f0ff2f00838f6c0006003b0004056500c9
:100ce0000a00a7000800370009f0a6001000200045
:100cf00008003700820f5400838f5c000300390026
:100d00001000200001003e000000200009f0a700b4
:100d10000000ea004f05be004f04be000000e000e6
:100d2000000006006022b800060220000000d0008b
:100d30008180d2000482d2008582d2000000a0000f
:100d40000202520083825a00030031000202420074
:100d500083824a000000a1000603e900f3ff3a0085
:100d600000000600c70ade00f107b200f50fb2006e
:100d700008003200e1cf4200020032000170a00002
:100d800024000500810f70000100320004080500f6
:100d900044000500810f700002003a0014000500b5
:100da0008502e9000000400081c04800fcff3b00d4
:100db0000170a000240005000200be006450e100a4
:100dc000050036006420e100020036000968a30037
:100dd00001003a000800be000160a0004f06780044
:100de0004f05be004f04be0000000600f0ff2f00bc
:100df000f1ff2700f9ff37000004be00d9ff07000c
:100e00000003be000405be000200be00d5ff0700bf
:100e1000844f750000000600889fbe008a9fbe00b8
:100e20008c9fbe000004be00ceff07000800be007d
:100e3000890678006420e1000800390004003200cf
:100e40000160a0001202200092cf880053003700fa
:100e500091fc2300b0fd20004e0037000006eb009f
:100e600009f0a10003f82300020020000800be00e2
:100e7000f4fd07000600340001f823000000200004
:100e80000801be0009ff07000004be002c0020007e
:100e90000800be0093e82300320a2300e9fd0700a2
:100ea000120034000801be00d1fd2300703d2b006c
:100eb0007cfe07000005be00b3f32300f27a260093
:100ec0000800be0042fe070003f8230002002000d5
:100ed00073fe07000801be0072fe07000a01be0093
:100ee000f2fe07000004be000c06e8000800be0089
:100ef00001f0a1000200200003982300d1fd0700ab
:100f00000800be00160035000801be0030fe0700d4
:100f10000005be0032cd2c0043fb230061fe07001c
:100f2000809fbe001269280003d52b000a00be0076
:100f300027fe0700620f210013ef2b0059fe070068
:100f40000a01be0022fe07004f01be00d7fe0700c7
:100f50000801be001efe07000801be0051fe07008a
:100f60000c00e0000b0032000c10a70001f0a20002
:100f7000b2fd200093fc23006260e1000400320017
:100f800022a9200063f023000c10a70063f82300bf
:100f900044fe07000df0a70001f0a2004f06be00be
:100fa0004f05be004f04be0000000600881f7800f9
:100fb000000478005001be004000be000400400064
:100fc000858048000601490087814900009cbe00d9
:100fd0000294be000400e1000588e1000690e100f3
:100fe0000798e10002003100680044001008e800a2
:100ff0004f04780000000600f4874700889fbe0079
:101000008a9fbe008c9fbe008e1f78000205be0026
:101010000004be00d4b79f00e5b79f00f6b79f005d
:1010200087bf9f000000eb00c0b79f00b0b79f00d4
:10103000a0b79f0090b79f0080b79f000d042000cd
:10104000bfb097004fb09700000140000000e000e3
:101050000f003d004f08de0000007100c0b79f0088
:101060009e00070001003d0012002000a1000700c3
:1010700001003d0012002000a6000700b10007009b
:10108000b60007000f004000c8ff0700220037002d
:101090004f08de0000067100ccb79f008f000700ec
:1010a00001003d00120020009200070001003d00f9
:1010b0001200200097000700a20007000fb297005f
:1010c0009fb297002fb39700bfb39700a900070006
:1010d0000000520081805a0002015b0083815b00a6
:1010e00080b79f0091b79f00a2b79f00b3b79f0042
:1010f0000007eb009f0007000020e10001a8e100cd
:1011000002b0e10003b8e100010031001e00200040
:101110000e005600c0b79f004fb297000400e000d9
:101120000700350010002000010020006011b80009
:1011300008047000898470000a0571008b857100b5
:101140008d06e900beff3a000400e00003003d0008
:10115000820007000f00400094ff07004fa897008f
:101160000000e00004003a000fb497009fb497001d
:101170002fb59700bfb59700940007004f07780080
:101180004f06be004f05be004f04be004f01b10028
:1011900000000600881f780018002000881f7800d3
:1011a00095ff07008f87e9004f04780000000600d4
:1011b000801feb0090ff07008f87e900000006000a
:1011c000889fbe008a9fbe008c1f78006e000700bb
:1011d00007003d0073000700e00f5b00e08f5b003d
:1011e00007003d00320007000006eb000400370056
:1011f0003400070002003d002a0007001c00200008
:1012000072000700e3ff07000203be000002be00f9
:101210000c00e00001003200220007000400be00c4
:101220000601be004f0678004f05be004f04be0009
:1012300000000600889fbe008a9fbe008c1f7800b9
:101240005100070005003d0056000700e00f5b005d
:10125000e08f5b0006003d00040037001900070026
:1012600003003d006000b8006011b80010000700e6
:1012700056000700ceff07000203be000002be00ba
:101280000c00e00001003200060007000400be0070
:101290000601be004f0678004f05be004f04be0099
:1012a000000006006000b8006011b80000003700c0
:1012b00004025000858258000603590087835900b4
:1012c000000006000006eb00e00f5200e08f5a001d
:1012d000e00f5b00e08f5b00000006000180400033
:1012e00090b79f000001eb008fb097000100e00075
:1012f000000006000200700090b79f0001804000cf
:1013000080b79f000001eb00ffa897000100e000fc
:10131000000006000200700080b79f0001804000be
:101320006faa9700cf20de0001007000f0af9f0091
:1013300004024200250007004f18de000002720080
:1013400000000600e4af9f000804440089844c00bc
:101350000a054d008b854d00000006003fb2970046
:10136000cfb297005fb39700efb3970000fe2f0056
:10137000000006003fb09700cfb097005fb1970024
:10138000efb19700000006000205be000004be0099
:10139000e00f5000e08f5800e00f5900e08f590037
:1013a000000006006000b8006011b800080450009a
:1013b000898458000a0559008b8559001c002000bb
:1013c000e00f5200e08f5a00000006000800be0047
:1013d0000a01be00000006000c00fa00889fbe0053
:1013e00000047800cfb09700f0ff2700d0bf9f0027
:1013f0008004eb0099bf9f0088bf9f00a8bf9f009b
:10140000200c2000b0bf9f007881570070805700eb
:101410001c0007000fb89700094878000fb8970024
:1014200008045000080078004f04be000080fa0055
:1014300000000600800078003004e000feff3a0063
:10144000010050000000e900000006000c00fa0056
:10145000a0bf9f00c0bf9f00f6ff0700b0bf9f0066
:10146000f0bf9f00100c2000d0bf9f007481570078
:10147000efb097006c805700e30207000080fa008d
:1014800000000600fe874700889fbe008a9fbe00be
:101490008c9fbe008e1f7800f0b79f000107780078
:1014a00082bf9f000000eb00a0b79f009f023700a3
:1014b0008006eb0050c2b30080cf5000090032001c
:1014c0000100fb00ffb09700f0030700e10f4000b0
:1014d00096023200afb097008100e800a1b79f00ec
:1014e000920237009e407800d0c2b30080cf5000f7
:1014f0000c00320007003c006d40500080cf5000cf
:101500000a0032006b40400080cf50000e003a00cd
:101510000800370000c3b30080cf50000a003a0033
:10152000060037000d30a000050037000d00a000b8
:10153000030037000d10a000010037000d20a000af
:101540000e07e800e7ff37000d18a3000100320086
:101550000d00a1000d38a300010032000d20a100f4
:101560000100fb0002fd2f0002004000e90f5000c7
:101570000e003e000002eb00c4b79f00820178001d
:10158000cfb297006a28b9001e01fb00000141009c
:1015900003014100c2b79f005e00fb000300400052
:1015a000e90f50000b003e00f5ff37000006eb008e
:1015b000ccb79f00a0c2b30080cf500005003a0016
:1015c0000fb89700c000780080bf9f00c1b79f0090
:1015d0000e07e8000001eb00b2b79f00e0c2b300c5
:1015e0009e4f100018003a000de0a0008e00e800a9
:1015f00064405000914f1000020032000107780053
:101600000c0037000fba9700c402780084bf9f0017
:10161000b5b79f000e87e8000b0037003fb6970074
:101620006a60b9000000410003004000b0b79f00ad
:101630000e07e8001e01fb0003fd2f000300410020
:10164000e90f5000f5ff3600be407800e1d79f005b
:10165000c0c6b30080cf5000220032000f003c0013
:101660006940500080cf50007700320004003c00f9
:101670000104e000310232006b4050000f003700df
:1016800040c6b30080cf5000930032006540400058
:1016900080cf50008b003a008f00370030c7b30076
:1016a00080cf50001a00320007003c006440500018
:1016b00080cf5000110032000040e80080cf500081
:1016c00080003a000f00370050c7b30080cf5000b1
:1016d000800032006340400080cf500079003a0023
:1016e00009003700000028000d48a30001003a005f
:1016f0000001200080867600d3ff37000d60a00037
:10170000750037000d50a0000d70a000720037006a
:101710008fb897004100780081bf9f0000047800d7
:101720000000e00001003a0048a921008004eb001d
:10173000010037008104e800890078000880440037
:101740001004e000fbff3a003fb197000200e00008
:1017500003003200890f510001003100820478003b
:101760000002eb00e4af9f00cfb29700898f5200d8
:101770000200360009805200e0af9f004368de009f
:10178000e10660001b003a000d06780009003700f2
:10179000ffb09700000220003c030700e10f40006b
:1017a000030032002fb097000000e800a0b79f00b0
:1017b0000c06e800efa89700810f5600f4ff3a00ee
:1017c0000081eb00e2af9f000a003700880078003c
:1017d0003100fb0001047800ffb097002b030700e5
:1017e000e10f4000030032002fb297000402e8002e
:1017f000a4b79f000900e90080047800e10f4000d1
:10180000f2ff3a000006eb000d00e0000a003a008b
:10181000c6013700ffb09700000220001b0307003d
:10182000e10f400003003200afb297008502e800ec
:10183000a5b79f000c06e8006fa89700800f560020
:10184000f4ff3a00b90137008fb8970041007800e3
:1018500081bf9f00cf80de00010178008201780007
:101860000205be000004be000203be000002be006e
:101870004822de00482edd0004027600e4d79f00f7
:101880000d48a3000a0032000404e0000800320002
:10189000e14f42000600320071fd2f000180470039
:1018a0000448780018409800290020000200370002
:1018b000f0d79f001900200072fd2f00028447001e
:1018c000a1ff370064fd2f000484470019002000a9
:1018d0009dff37000d0cb3000d007800000cb20026
:1018e00028003a000d00e00005003d008fba970087
:1018f0004505be004504be0085bf9f0014003700ab
:101900000d48a3000b0032000fbe97004c00be0034
:101910008cbf9f004f89de00cf91de000002be0029
:1019200002037800820378000605be000404be00ae
:10193000070037008fb897004100780081bf9f00f3
:1019400000047800cfc4de00090578008a0578001d
:10195000e00f5400e08f5c00e00f5d00e08f5d0061
:101960001f003d003d00b3006000b8006011b800ea
:1019700008045000898458000a0559008b855900d5
:10198000170037000d00e00005003d000fb997007b
:101990004205be004204be0082bf9f001000370017
:1019a0000d48a300070032000fba97004400be00a4
:1019b00084bf9f006011b8000205be000004be0095
:1019c000070037008fba97004500780085bf9f0059
:1019d00000047800090020000a0020000b0020000d
:1019e0003fb697000c00e00007003a00e00f5400fb
:1019f000e08f5c00e00f5d00e08f5d0002003a00c8
:101a000010002000b0b79f008d007800010cb200dc
:101a1000e1b79f0000042000808f500030003200aa
:101a200003003c000100e0000800320040003700e5
:101a3000000820006fb19700800f510014003200a1
:101a4000000c2000800f510039003a0014c0b30090
:101a5000459f21000b0037000400fb004300dd0020
:101a6000050040005001be004000be000040e10003
:101a700001c8e10002d0e10003d8e1002b003900e9
:101a80000442e800f44f5200f3ff3a002700370009
:101a900000012000010020006011b80014c0b30054
:101aa0000040e10001c8e10002d0e10003d8e100fc
:101ab0001e003900450020000000d0008180d200c7
:101ac0000281d2008381d2008502e900faff3a0048
:101ad0000442e800f04f5200f1ff3a0013003700d3
:101ae00080002000010020006011b80014c0b30085
:101af0000040e10001c8e10002d0e10003d8e100ac
:101b00000a0039003c0020000000d0008180d20093
:101b10000281d2008381d2000c06e900faff3a006c
:101b20000442e800f54f5200f1ff3a00e4d79f006d
:101b3000efd097000100fb003fb19700820f5000eb
:101b400002003d00e2d79f00040037003fb297003b
:101b5000800f520001003d00b0b79f00cfb2970048
:101b60000500e000040032006380660002003200dd
:101b70008502e900c5b79f000de8a3000b00320005
:101b80004fb697003fb09700800f560003003c000f
:101b90008000eb00c1b79f00040037004fb19700f1
:101ba0003fb2970004015100c2b79f00efd29700e7
:101bb0000500fb000006eb00dcaf9f00cfb09700f4
:101bc000808f50000200340000805000d0af9f0092
:101bd0000d28a30037003200e18066000d18a30035
:101be0000c003200d00220000100e00001003a00a9
:101bf0000080e900ffb0970024020700e10f4000d9
:101c00000e0032002fb197000201e800a2b79f003a
:101c10000a0037000100e00008003200ffb0970022
:101c20000002200019020700e10f4000030032000b
:101c30002fb297000402e800a4b79f00dfaa970024
:101c40000500e0000f0032000006eb00ffb0970037
:101c5000000320000d020700e10f400003003200e6
:101c60002fb097000000e800a0b79f000c06e80026
:101c7000dfa89700810f5600f4ff3a000001eb0047
:101c8000d2af9f003fb29700c320dd00c09e21006d
:101c90008080400091b79f004220dd00640050002a
:101ca00080b79f006320b900f0af9f00630650002b
:101cb00084003700dfaa97000500e0001100320021
:101cc000688066000f003a0000067800ffb09700b9
:101cd00000022000ed010700e10f40000300320088
:101ce0002fb097000000e800a0b79f000c06e800a6
:101cf000dfa89700810f5600f4ff3a000001eb00c7
:101d0000d2af9f00e18066000d18a3000c003200e6
:101d1000d00220000100e00001003a000080e9004c
:101d2000ffb09700d9010700e10f4000d5ff320056
:101d30002fb297000402e800a4b79f00d1ff37003c
:101d40000100e000cfff3200ffb09700000220004a
:101d5000ce010700e10f4000caff3200afb297008a
:101d60008502e800a5b79f00c6ff370000042000e9
:101d7000efb09700808f50003100320003003c002c
:101d80000100e000080032003e003700000820009b
:101d90006fb19700800f510011003200000c20003d
:101da000800f510037003a001fb097003002be008c
:101db0002003be000800be000a01be00f5fc0700bb
:101dc000a4002000050020006033b800f8fc0700e4
:101dd00004c3b30004424000e4d79f002900370049
:101de000b5a92100d5b79f000d58a30002003a0005
:101df000c0aa2100d0b79f001400200005002000d9
:101e00006033b8008fb097008100e900050033000f
:101e10000402d0008582d2000683d2008783d200dc
:101e2000f9ff37000800be000a01be00d9fc070018
:101e30006f0060005fb197006240780010003700cb
:101e400014002000050020006033b8000c0078006a
:101e50000000e900050033000402d0008582d200b2
:101e60000683d2008783d200f9ff37000800be0046
:101e70000a01be00c7fc0700674060000043b000d5
:101e8000e0d79f00efd097000100fb00ffb0970064
:101e90007e010700e10f4000030032002fb19700e0
:101ea0000201e800a2b79f001fb29700680252002b
:101eb00094b79f008fb29700e482520085b79f00cd
:101ec00063065600d0ff2f003fb197000090b90085
:101ed0007faa97000000420063005000800f560068
:101ee000a2ff3a000d38a30010003200dfaa9700cd
:101ef0000500e0000d0034000006eb00ffb0970085
:101f00000002200061010700e10f400003003200e1
:101f10002fb097000000e800a0b79f000c06e80073
:101f2000dfa89700810f5600f4ff3a00be4078000a
:101f3000e1d79f000104e0005dfd3a002fb097005b
:101f40004f0778004f06be004f05be004f04be008d
:101f5000ef01b10000000600889fbe000004780079
:101f60008144780000fd2f0000004400e90f50007c
:101f700002003e00000178000d00370008007800e4
:101f8000f0f807000000e0000300320008007800cd
:101f9000f2f807000004780008007800f6f807005f
:101fa0000000e0000700320090fa2f00000144001a
:101fb0000980fb00800f510002003d000280fb0001
:101fc00001003700f00f20004f04be0000000600a3
:101fd000881f780050d78000730107000004780044
:101fe000eff807000000e000faff3a00e10f4400bc
:101ff0000300320051d78000080078009e010700de
:102000004f04780000000600ec874700889fbe0060
:102010008a9fbe008c9fbe008e1f780081bf9f00ec
:102020000207780050d788008046eb000401370093
:102030008884fb0009007800d9f807008000780048
:102040000000e00002003200e1ff0700fc00370062
:1020500050c2b300804f5400f0003a000fbd97000b
:1020600020c0b300c0ef9f00d1ef9f0081ef9f0021
:102070000300370040c0b300c0ef9f000fbd9700c2
:102080000fb99700b240780082bf9f008184fb00a7
:1020900090c6b30080cf50003500320017003e00dc
:1020a0006640500080cf5000620032000c003e00bd
:1020b0007740500080cf50002800320006003e00dc
:1020c0000104e0009b003200a0c2b30080cf5000aa
:1020d0006e003a001d00370080c5b30016003700bf
:1020e00040c6b30080cf5000210032006440400061
:1020f00080cf500065003a001200370030c7b300af
:1021000080cf50001e00320007003e0067405000a4
:1021100080cf5000110032006340400080cf50005b
:102120005a003a001400370050c7b30080cf500067
:102130000f0032006340400080cf500053003a004f
:102140006500370020c0b300cbff3700dfe8970001
:102150008140e800d1ef9f00c8ff37004fe99700aa
:1021600080c0b300e24f5100c3ff3a00c1ff370007
:10217000acc0b300590037008cc0b3005700370023
:1021800093ff0700dfe897000104e00002003a0037
:102190004e017800d2b79f0050d78000020107009f
:1021a00000047800e10f4000a20032008fec97009d
:1021b000120037000a85e8008abf9f00160037002a
:1021c0008fb897001100fb00800f5400f9ff320018
:1021d0005fe997000204e00003003a005fb0970057
:1021e00008587800d0b79f008944e9000a003200ff
:1021f00050d78000ec000700000478000800e800d9
:10220000e10f5000040036000800780064f8070071
:102210000000e000eaff3200dfe897000104e00080
:1022200087003a008d46e8005fb1970001497800c9
:10223000830037005fe897000004e00003003a00e5
:102240008d46e800ce007800d1b79f0050d78000bf
:10225000d5000700e10f4000760032005fe99700eb
:102260000204e00003003a00dfb0970080587800d5
:10227000d1b79f000fe997000241e90082ef9f006c
:102280004240a9006e003400f0ff37000180fb00df
:1022900008fd2f0008004000e90f50005f003e00dd
:1022a0000a0078001101070080ef9f008800780085
:1022b000030037000fb897000000e80080bf9f00c0
:1022c0000fb997001200fb0001004000e90f500019
:1022d000f8ff360069ff37000cc1b3003cff070070
:1022e00050d78000b0000700000578000040eb00e8
:1022f000e0ef9f00d0022000800f550005003a005b
:1023000050d78000a80007000005780011c0b30076
:10231000e1ef9f008c4078000a0078000eff070074
:10232000e14f40000a003a0051d780000a007800cf
:10233000d10007000d04e0004b003a0050d78000a8
:10234000300090000048a3004300320048003700ee
:102350008fed97006044b8000c81fb000300200063
:102360000800be0086f807000004be008c4078001c
:102370000a007800f8fe07000080fb000100200042
:1023800008044000898448008b45e90007003200ba
:1023900050d7800084000700000578008c4078004a
:1023a000edfe0700e14f4000ebff3a008c40780063
:1023b0000a007800e8fe0700e14f400003003a0001
:1023c00051d780000a007800ab0007006fe9970042
:1023d0000204e0000200320060041400e0841c00eb
:1023e0005fe897000004e00015003a008d46e80021
:1023f000cfe89700e4cf500003003a004e00780089
:102400000888be000e0037000e81e9000207780040
:1024100012007800080878000900370050d78000c3
:1024200061000700808f540005003200e10f40007a
:102430000b003a000d04e0000d0032000a003700e6
:102440008fb897003144780081bf9f000804e000f6
:10245000f7fe3a00040037000000eb0005003700eb
:1024600051d78000840007000d80fb000100370079
:102470000080eb004f0778004f06be004f05be00fe
:102480004f04be00cf00b10000000600889fbe00d0
:102490000001780001047800b10090000118a30049
:1024a0003d0032000198a30003003a00180090009c
:1024b0000000e00038003a000190a00031049800cc
:1024c00082047800f90fb200180090000000e000cc
:1024d00002003a0028009000000c7800ea8f5400b7
:1024e00006003a00380090000078a30003003a008c
:1024f00088007800d0002000e4ff070098009000da
:1025000058009000808f50000b0032000100e8005e
:10251000100498001800780009587800000c780022
:1025200011c0b30080ae210001487800ea8f54004a
:102530000600320019003700880078000940780052
:102540008e000700800478001400370038009000e7
:102550000088a3001100320018019000a80090002c
:102560004800900096f7070098009000810f5000f7
:1025700004003200380090000003b30030049800db
:102580008084eb000000eb0010049800280090000d
:10259000000c7800010037008084eb00090078000f
:1025a0004f04be0000000600881f78000004780079
:1025b000b00090000148a30007003a000108a30002
:1025c000050032000198a3000800320010009000be
:1025d0000000e00005003200380090000040a0003c
:1025e000300498008080eb00200037000190a100ab
:1025f00031049800180090000000e000060034004c
:102600000000e9001004980018007800b080fb007a
:10261000000c780006003700380090000068a30026
:10262000edff3a000800780097000700800078006e
:10263000380090000078a3000c003a00fa8f500098
:1026400008003a00280090000000e000e2ff32009d
:10265000180090000000e80010049800180ce90031
:10266000ddff3700ed8f5000e2ff320001007800ff
:102670004f0478000000060080017800e10f400060
:1026800017003200310090000008a300140032004f
:102690000098a30012003a00210290000400e0001c
:1026a0000f0032001101900051009000800f510086
:1026b0000b00320011007800840f500002003a0035
:1026c0008008e800020037000200e800900098004f
:1026d0001100e90080087800034878000100370005
:1026e0008081eb0003007800000006000001780004
:1026f00000c2b300010037000201e80092407800f8
:1027000080cf5000fcff3200e9cf5000faff3200ca
:10271000d0c2b30080cf500003003a000201e800ad
:1027200014c0b300050037000042eb00b0c2b30094
:1027300080cf500001003a000201e8008000eb0069
:1027400005fd2f00040037006a08b9000080410031
:10275000850040000201e8009201fb000580410075
:10276000e90f5000f8ff36000404e00001003200d9
:102770008100ea0001007800000006000200fa0073
:10278000889fbe00a0ff9f0001047800b100900068
:10279000810478000904b200020032000000fb004e
:1027a000360037000118a30005003a000103b3000a
:1027b00031049800190498000080eb002f003700c6
:1027c000580090000000e00006003a004800900029
:1027d00012002000e6805700f9f60700190498005f
:1027e00024003700280090000000e00008003a00b4
:1027f00040ae210020049800000c7800200020004a
:1028000050049800100498000130a0003104980092
:1028100018019000a800900048009000e8f607001a
:1028200028009000000c78000080eb001004980055
:1028300018007800aff8970001587800000c780075
:102840002ff89700ea4f50000a003a003800900035
:102850000088a3000700320018019000a800900033
:1028600048009000d6f6070019049800a8009000d0
:10287000010c7800aff897000100fb004f04be0088
:102880000080fa00000006000200fa00889fbe00e7
:102890008a1f7800000478000000eb001004980004
:1028a000380090008080eb000008a3003f00320059
:1028b00080ae21001004e0001000320009ac2100bd
:1028c0006aac21001a0078006c0545002010b200a7
:1028d00021102000810f500002003a00090078000a
:1028e00037000700ec84440040ae2100808f540084
:1028f000f4ff3a0080ae21000048eb004800900051
:10290000580190000200e0000d003a001204980007
:1029100012002000e8805700e0f60700e10f5000a9
:1029200003003a000ff897008080fb001f0037007b
:10293000380090000040a0003004980012003700da
:10294000a8009000d5f60700100498000000e000f1
:1029500003003200e10f40000d003a000300370091
:10296000380090000040a0000200370038009000be
:102970000003b30030049800a8009000010c780018
:102980000000eb00100498008080eb000700370087
:10299000a8009000010c78000000e90010049800e5
:1029a00001007800b080fb00000c78000100780086
:1029b0004f0578004f04be000080fa0000000600ba
:1029c000881f780000047800300090000008a30001
:1029d00007003200800078000120b20004003a00b5
:1029e00011049800a8009000010c7800170037002f
:1029f0000018a300190032000098a300170032004d
:102a0000a80090000100e0001400320018019000be
:102a10000200e000110032004800900068f6070054
:102a200098009000810f50000300320038009000a1
:102a30000003b300300498000000eb00100498007d
:102a400028009000000c7800380090000058a30087
:102a5000020032000080eb00010037000000eb00b4
:082a60004f047800000006009d
:020000040000fa
:0200000401f009
:04000000e6bf000057
:020000040000fa
:0200000401f009
:04000400ff7f00007a
:020000040000fa
:0200000401f009
:040008007fff000076
:020000040000fa
:0200000401f009
:04001400ffff0000ea
:020000040000fa
:1000080090010000900100009001000090010000a4
:100018009001000090010000900100009001000094
:100028009001000090010000900100009001000084
:100038009001000090010000900100009001000074
:1000480090010000384a00002c49000018210000e7
:10005800900100009001000082350000900100002e
:100068009001000090010000900100009001000044
:1000780090010000aa3b0000123b00009001000024
:100088009001000090010000900100009001000024
:100098009001000090010000900100009001000014
:1000a8009001000090010000900100009001000004
:1000b80090010000900100009001000090010000f4
:1000c80090010000900100009001000090010000e4
:1000d80090010000900100009001000090010000d4
:1000e80090010000900100009001000090010000c4
:0800f8009001000090010000de
:020000040000fa
:1001080090010000900100009001000090010000a3
:100118009001000090010000900100009001000093
:100128009001000090010000900100009001000083
:100138009001000090010000900100009001000073
:1001480090010000384a00002c49000018210000e6
:10015800900100009001000082350000900100002d
:100168009001000090010000900100009001000043
:1001780090010000aa3b0000123b00009001000023
:100188009001000090010000900100009001000023
:100198009001000090010000900100009001000013
:1001a8009001000090010000900100009001000003
:1001b80090010000900100009001000090010000f3
:1001c80090010000900100009001000090010000e3
:1001d80090010000900100009001000090010000d3
:1001e80090010000900100009001000090010000c3
:0801f8009001000090010000dd
:020000040000fa
:102a6800536500006c650000637400006f7200001d
:102a7800207000006f73000020250000640d000026
:102a88000a0000000c0700004d790000204e0000ed
:102a9800616d000065200000697300002048000097
:102aa800696e000064200000416200006f7500003c
:102ab80063680000650d00000a7400006869000082
:102ac8007320000069730000206d00007920000069
:102ad8006e65000077200000707200006f670000cc
:102ae800726100006d6d00000d0a00002074000086
:102af800617000006572000022480000222000007a
:102b0800706f0000757200002061000069640000a9
:102b1800650d00000a000000746f00007573000066
:102b2800206c000065730000204c00004544000044
:102b380073200000736f00006e74000020610000b5
:102b48006c6c0000756d0000e9650000730d0000f5
:102b58000a000000422c0000256400000d0000005f
:102b68006c610000204c0000454400002063000018
:102b7800656e000074720000616c00006520000042
:102b88006573000074200000616c00006c75000023
:102b98006d650000650d00000a0000006c61000012
:102ba800204c00004544000020630000656e0000d2
:102bb80074720000616c0000652000006e27000040
:102bc800657300007420000070610000732000002d
:102bd800616c00006c7500006d650000650d0000fb
:102be8000a0000006c650000207200006f6200009f
:102bf8006f740000206500007374000020640000fa
:102c0800616e0000732000006c61000020700000fd
:102c18006f73000069740000696f00006e20000087
:102c28003a250000640d00000a000000442c000052
:102c3800256400002c250000640d0000006c0000d5
:102c480065200000726f0000626f000074200000b1
:102c58006573000074200000656e0000206d0000a0
:102c68006172000063680000650d00000a00000042
:102c7800462c0000256400000d0000006c61000077
:102c8800206c00006564000020660000726f000080
:102c98006e740000616c0000652000006573000020
:102ca80074200000616c00006c7500006de9000084
:102cb800650d00000a0000006c610000206c000037
:102cc8006564000020650000737400002066000041
:102cd800726f00006e740000616c000065200000d7
:102ce80065730000742000006e6f00006e20000005
:102cf800616c00006c7500006de90000650d000056
:102d08000a000000472c0000256400002c25000064
:102d1800640d0000006c0000612000006c6500007c
:102d2800642000006573000074200000616c0000de
:102d38006c7500006de90000650d00000a000000d8
:102d48006c610000206c00006564000020650000d4
:102d58007374000020e9000074650000696e0000cb
:102d6800740d00000a0000000a000000412d000058
:102d78002d2d00002d2d00002d2d00002d2a0000e6
:102d88002a2a00002a2a00002a2a00002a2a0000eb
:102d98002a2a00002a2d00002d2d00002d2d0000cc
:102da8002d2d0000204100004c4c0000554d000026
:102db80045520000207400006f7500007420000068
:102dc8006c650000732000004c450000447300004f
:102dd8000d0a0000004200002c7600002d2d000096
:102de8002d2d00002d2d00002a2a00002a2a00007f
:102df8002a2a00002a2a00002a2a00002a2a00007b
:102e08002d2d00002d2d00002d2d00002d2000005f
:102e18004c45000044200000434500004e5400008b
:102e2800524100004c4500003a200000303d0000af
:102e38004f46000046200000313d00004f4e000084
:102e4800200d00000a000000432d00002d2d000079
:102e58002d2d00002d2d00002d2a00002a2a00000b
:102e68002a2a00002a2a00002a2a00002a2a00000a
:102e78002a2d00002d2d00002d2d00002d2d0000e5
:102e8800205000004f53000049540000494f0000f3
:102e98004e2000006465000020530000656c0000af
:102ea8006563000074650000757200000d0a00007b
:102eb800004400002c760000672c0000766c0000af
:102ec8002d2d00002d2d00002a2a00002a2a00009e
:102ed8002a2a00002a2a00002a2a00002a2a00009a
:102ee8002d2d00002d2d00002d2d00002d2000007f
:102ef80053450000542000006c610000207600005b
:102f080069740000657300007365000020640000a8
:102f180065730000206d00006f7500007465000087
:102f2800757200007320000067610000756300007f
:102f3800686500002c640000726f0000697400006e
:102f48000d0a0000004600002c7600002d2d000020
:102f58002d2d00002d2d00002a2a00002a2a00000d
:102f68002a2a00002a2a00002a2a00002a2a000009
:102f78002d2d00002d2d00002d2d00002d200000ee
:102f8800467200006f6e0000742000006c6500003f
:102f980064200000303d00004f460000462000003d
:102fa800313d00004f4e0000200d00000a000000d7
:102fb800472c0000696400002c7600002d2d0000cd
:102fc8002d2d00002a2a00002a2a00002a2a0000a3
:102fd8002a2a00002a2a00002a2a00002d2d000093
:102fe8002d2d00002d2d00002d200000616c00000b
:102ff8006c7500006d65000072200000757500009a
:103008006e65000020730000657500006c200000ec
:103018006c650000640d00000a000000482d0000e7
:103028002d2d00002d2d00002d2d00002d2a000033
:103038002a2a00002a2a00002a2a00002a2a000038
:103048002a2a00002a2d00002d2d00002d2d000019
:103058002d2d000020480000656c0000700d000058
:103068000a000000452d00002d2d00002d2d000028
:103078002d2d00002d2a00002a2a00002a2a0000ef
:103088002a2a00002a2a00002a2a00002a2d0000e5
:103098002d2d00002d2d00002d2d0000206c00008e
:1030a80061200000766100006c6500007572000008
:1030b8002064000065200000626100007474000054
:1030c800727900000d0a0000005300002d2d000049
:1030d8002d2d00002d2d00002d2d00002a2a000086
:1030e8002a2a00002a2a00002a2a00002a2a000088
:1030f8002a2a00002d2d00002d2d00002d2d000066
:103108002d200000535400004f500000206500009f
:103118002d700000756300006b200000616e0000d8
:103128006420000074750000726e0000204f0000db
:1031380046460000204c000045440000730d000086
:103148000a000000706f00007572000063650000df
:103158006e7400006167000065200000647500005f
:1031680020630000686100007267000065200000ad
:103178003a25000064250000250d00000a00000023
:103188006c650000732000004c450000447300008b
:1031980020650000742000006c65000073200000aa
:1031a8006d6f000075740000657500007273000093
:1031b800207300006f6e0000742000004f4600006e
:0831c800460d00000a000000a2
:020000040000fa
:1031d0000a00fa00100798000000eb00000f7800ca
:1031e000951607000004e00038003200219d210000
:1031f0009140780000c4b30080cf500006003a0030
:10320000029a2100e1992100c0992100670b070073
:103210000040eb00d2f9b7001e0090003007980084
:103220003e009000e10f5000110032003e0090007f
:10323000e10f5000040039003e009000e20f500002
:10324000150032001e003700f1cc800040cc800019
:10325000008f50001e007800c480de001e00780041
:103260004680de0080805000210798004c00370027
:10327000e1cc800030cc8000008f50001e00780030
:10328000c480de001e0078004680de008080500092
:10329000210798004200370001cd800060cf8000f8
:1032a000008f50001e007800c480de001e007800f1
:1032b0004680de00808050002107980038003700eb
:1032c000a029200020079800350037001e0090003c
:1032d000400798004e009000e10f500014003200ab
:1032e0004e009000e10f5000040039004e009000a5
:1032f000e20f50001b003200270037009e009000b4
:1033000082ce8000200320000088b9000200400027
:1033100080004000a07e21000080400090007800e6
:1033200030cc800080805000210798001c003700be
:103330009e00900082ce8000200320000088b9000b
:103340000200400080004000a07e2100008040007c
:103350009000780040cc80008080500021079800c9
:103360000f0037009e00900082ce800020032000d6
:103370000088b9000200400080004000a07e2100cb
:10338000008040009000780060cf80008080500076
:103390002107980002003700a0292000200798008c
:1033a0002e0090000080fa00000006001400fa00d1
:1033b00050079800610798006000b8003007980037
:1033c000410798001c1607000004e0005600320078
:1033d000219d21009140780000c4b30080cf5000af
:1033e00006003a00029a2100e1992100c0992100cb
:1033f000ee0a07000040eb00d2f9b700ead9bf009f
:103400000004e000180032005e009000000f9800f9
:103410000e089000e10f50000a0032000e089000e4
:10342000e10f5000040039000e089000e20f500038
:103430000700320009003700110b070070079800e1
:1034400073003700fe0a070070079800700037000d
:103450001b0b0700700798006d003700a0292000a3
:10346000700798006a0037005e009000100f980007
:103470001e089000e10f5000120032001e0890005c
:10348000e10f5000040039001e089000e20f5000c8
:103490001700320021003700f0cc8000000f7800c8
:1034a0001e007800c480de001e0078004680de002a
:1034b00080805000008020008080400071079800cc
:1034c00053003700e0cc8000000f78001e00780029
:1034d000c480de001e0078004680de008080500040
:1034e000008020008080400071079800480037006d
:1034f00000cd8000000f78001e007800c480de0040
:103500001e0078004680de00808050000080200091
:1035100080804000710798003d003700a0292000fe
:10352000700798003a0037005e009000e20f5000ec
:1035300031003e006e0090000000e0002e003200de
:10354000ee00900020032000808f50002a003e00f3
:103550000000eb002007980081ce80006e009000f4
:10356000008050003003b000220320001100090049
:103570000280d8008000fd00100798001a00370074
:10358000de0090001e019000200320000088b9009a
:103590000200400080004000a07e2100008040002a
:1035a000100078006101b9003e009000ce0090004c
:1035b00000004100818049003007980041079800d1
:1035c0002e0090000000e800200798001e009000e8
:1035d0000000e80022032000110009000200d800ca
:1035e0008000fd0010079800ae0090006e00900073
:1035f000808f5000e2ff39006e0090006101b8003a
:103600003e009000ce00900010f407007007980074
:103610007e0090000080fa00000006000000fa0022
:10362000851507000004e0000a0032000000eb00ee
:10363000e7fe070050cc880010002000e4fe0700e1
:1036400060cc880020002000e1fe070070cc8800dc
:1036500015003700510020000000eb0053ff070069
:103660008000780030cc80000080500050cc880072
:1036700051002000100020004cff0700800078005f
:1036800040cc80000080500060cc880051002000b9
:103690002000200045ff07008000780060cf8000f8
:1036a0000080500070cc88000080fa000000060006
:1036b0000000fa00889fbe008a9fbe00d7ff070067
:1036c00050cc80006103b90050cc80006102b90089
:1036d0008600780004007800000db80005b0b9003d
:1036e0000b0178000001410007a0b9000001410072
:1036f0008205780060cc80006104b90060cc800055
:103700006103b9008800780006007800000ab8005c
:1037100007c0b900050178000001410009b0b900f7
:1037200000014100820278000a0542008b854a00b0
:1037300070cc80006104b90070cc80006103b900d6
:103740008800780006007800000ab80007c0b900b9
:10375000050178000001410009b0b90000014100f5
:10376000820278000a0042008b804a008af3070038
:10377000c5f3070080cc880091cc880050cc800035
:103780006103b90050cc80006102b9008600780066
:1037900004007800000db80005b0b9000b017800f6
:1037a0000001410007a0b900000141008205780036
:1037b00060cc80006104b90060cc80006103b90076
:1037c0008800780006007800000ab80007c0b90039
:1037d000050178000001410009b0b9000001410075
:1037e000820278000a0042008b804a006af30700d8
:1037f000a5f307000004be0070cc8000cf80de007f
:1038000065f307000801be00d4f30700c2092300d6
:1038100053262c00eef3070002002000432b240067
:1038200020f40700c0cc8800d1cc8800c0cc800038
:10383000d1cc800002002000030a240081f307009d
:103840000000e00008003500c0cc8000d1cc800032
:1038500002002000033224006ff407000000e000a3
:1038600001003c00040037006000b800a0cc8800d4
:10387000b1cc88001100370060cc8000cf80de0022
:1038800045f307000004be0050cc8000cf80de006e
:1038900041f307000801be00b0f30700c20923008e
:1038a00053262400caf307000200200043332400fb
:1038b000fcf30700a0cc8800b1cc88004f05be0007
:1038c0004f04be000080fa00000006000000fa006d
:1038d00010c0b300eaf9b700210320000000eb009c
:1038e000b2fe070030cc8800210320001000200029
:1038f000aefe070040cc8800cf1407000004e000b3
:10390000070032002103200020002000a7fe07004e
:1039100001002c000100400060cf88000600370045
:103920002103200020002000a0fe070001d02f006e
:103930000100400060cf88000040eb00eaf9b700ca
:103940000080fa00000006000c00fa00881f7800d2
:103950000004780056ff070080cc800091cc8000e6
:10396000008fbe00a0cc8000b1cc80002007980062
:1039700031079800c0cc8000d1cc8000400798006f
:10398000510798008e007800080078001101be00f1
:103990000288be0064004000e48040001101be00c7
:1039a0000288be0064004000e48040001101be00b7
:1039b0000288be00080078004f0478000080fa00fa
:1039c000000006000000fa0039ff0700c0cc8000ac
:1039d000d1cc80000080fa00000006000000fa0050
:1039e00033ff0700a0cc8000b1cc80000080fa003b
:1039f000000006000000fa002dff070080cc8000c8
:103a000091cc80000080fa00000006000600fa0059
:103a1000881f78000004780000ff070050cc800069
:103a2000000f780060cc80001007980070cc8000f8
:103a3000200798001e00be00008cbe00ae00900063
:103a400021049800080078004f0478000080fa00f4
:103a5000000006000000fa00f0fe070050cc8000d5
:103a60000080fa00000006000000fa00ebfe0700ec
:103a700060cc80000080fa00000006000000fa0020
:103a8000e6fe070070cc80000080fa00000006000f
:103a90001600fa006000b800008fbe00cfff0700dc
:103aa000008fbe0020cc8000cf80de00baf207007d
:103ab0001e01be007af30700d9f30700200f98001b
:103ac0002e0890000000e00003003d00ae089000ca
:103ad0008100ea00210f98002e0990006110b900c2
:103ae000adf2070002002000030a2400caf3070019
:103af0000000e00001003c004f013700c5e2a900d2
:103b0000c5c2bf000080fb004700de0061406000ce
:103b10004601dd00512c200091407800f0cbb3002d
:103b200000c0600002407000c5e2b700c5c2bf001f
:103b30000080fb004600de006140600061406000e4
:103b40004501dd00512c200091407800f0cdb300fc
:103b500000c0600002407000c5e2b700c5c2bf00ef
:103b60000080fb004500de006140600061406000b5
:103b70004201dd00512c200091407800b0cfb3000d
:103b800000c0600002407000c5e2b700c5c2bf00bf
:103b90000080fb004200de00614060006140600088
:103ba0004401dd00512c200091407800f0ceb3009c
:103bb00000c0600002407000c5e2b700c5c2bf008f
:103bc0000080fb004400de00614060006140600056
:103bd00000414000512c200091407800d0cfb3002c
:103be00000c0600002407000c5e2b700c5c2bf005f
:103bf0000080fb000000d10061406000c700dd00d4
:103c0000c4c2bf000074a10001407000c4e2b7004c
:103c1000c4c2bf000080fb004700de0061406000be
:103c20004601dd00412c200091407800f0cbb3002c
:103c300000c0600002407000c4e2b7000040eb002a
:103c40002057980002002c00833a24001e00be007a
:103c500071f307000000e00001003c0002003700a3
:103c600011c0b300215798000041eb001257980093
:103c700002002000431b24001e00be0071f207005a
:103c80000000e000010034000200370010c0b30063
:103c900010579800ae5090001e51900002c0700066
:103ca0000004a2000004e00011003a000040eb0014
:103cb0000057980002002800634224001e00be0046
:103cc00078f307000000e00001003a00020037002e
:103cd00011c0b300015798000e5090000004a200dc
:103ce0000004e00002003a00c4c2a800cf00370080
:103cf0000041eb00724f980002002000431b24009b
:103d00001e00be0044f307000000e00001003c007c
:103d10000200370010c0b300704f98007e4890003a
:103d20000004a2000004e00011003a008040eb0013
:103d3000614f980002002000732824001e00be007e
:103d400040f207000000e0000100340002003700ec
:103d500012c0b300624f98006e4890000004a200a9
:103d60000004e00002003a00c5e2a800af003700fe
:103d70000040eb00504f9800020020007328240000
:103d80001e00be0024f307000000e00001003c001c
:103d90000200370011c0b300514f98005e489000f8
:103da0000004a2000004e00011003a000041eb0012
:103db000424f980002002000132e24001e00be0077
:103dc00020f207000000e00001003400020037008c
:103dd00010c0b300404f98004e4890000004a2006d
:103de0000004e00002003a00c5c2a8008f003700be
:103df0008040eb00314f980002002000132e240079
:103e00001e00be0004f307000000e00001003c00bb
:103e10000200370012c0b300324f98003e489000b5
:103e20000004a2000004e00011003a000040eb0092
:103e3000204f980002002800d33124001e00be004d
:103e400000f207000000e00001003400020037002b
:103e500011c0b300214f98002e4890000004a2002a
:103e60000004e00002003a00c5a2a8006f0037007d
:103e70000041eb00124f980002002800d3312400cb
:103e80001e00be00e4f207000000e00001003c005c
:103e90000200370010c0b300104f98001e48900079
:103ea0000004a2000004e00011003a008040eb0092
:103eb000014f980002002800a33424001e00be0019
:103ec000e0f107000000e0000100340002003700cc
:103ed00012c0b300024f98000e4890000004a200e8
:103ee0000004e00002003a00c542a8004f0037007d
:103ef0000040eb007047980002002800a334240023
:103f00001e00be00c4f207000000e00001003c00fb
:103f10000200370011c0b300714798007e40900046
:103f20000004a2000004e00011003a000041eb0090
:103f30006247980002002800733724001e00be006c
:103f4000c0f107000000e00001003400020037006b
:103f500010c0b300604798006e4090000004a200bb
:103f60000004e00002003a00c582a8002f003700dc
:103f70008040eb005147980002002800733724006e
:103f80001e00be00a4f207000000e00001003c009b
:103f90000200370012c0b300524798005e40900004
:103fa0000004a2000004e00011003a000040eb0011
:103fb0004047980002002400233924001e00be0060
:103fc000a0f107000000e00001003400020037000b
:103fd00011c0b300414798004e4090000004a20079
:103fe0000004e00002003a00c522a8000f003700dc
:103ff00002002400233924001e00be0086f20700c0
:104000000000e00001003c000800370002002c0026
:10401000833a24001e00be008af107000000e00081
:104020000100340001003700c4e2a8001e00be00f9
:104030007bf2070020cc88000080fa000000060018
:104040000200fa00004f7800ae110700f0c98800a6
:1040500010c0b3009e4f100003003a0010c0b30020
:104060008ef5b700020037000040eb008ef5b70078
:104070000000eb00001588000000eb001015880020
:104080000000eb00201588000000eb0030158800d0
:10409000f0c98000ea0f50000a003a0091092000a0
:1040a00091407800f0c8b30000c0600001c6b300c2
:1040b0000140700099e0b700a802a900a822a90059
:1040c00002003700a802a800a822a800a842a90060
:1040d000a862a900a882a900a8a2a900a8c2a90054
:1040e000a8e2a900a902a900a922a900a942a90041
:1040f000a962a900a982a900a9a2a900a9c2a90030
:10410000a9e2a900aa02a900aa22a900aa42a8001d
:10411000aa62a800aa82a800aaa2a900aac2a9000d
:10412000aae2a900ab02a900ab22a900ab42a900f8
:10413000ab62a900ab82a900aba2a900abc2a900e7
:10414000abe2a900112a200091407800c0cfb30053
:1041500000c06000a1e2b700a042a800012a200030
:104160009140780000ceb30000c07000a0e2b7001c
:10417000212a20009140780030ccb30000c06000bc
:104180000034a000a2e2b700a342a800512a2000f8
:104190009140780000ceb30000c060000004a00091
:1041a000a5e2b7008ed5bf000004e0000700320092
:1041b000412a20009140780000ccb30000c060008c
:1041c0003041b300a4e2b70007003700412a2000c5
:1041d0009140780000ccb30000c0600071c2b30011
:1041e00001407000a4e2b7008560a9008d60a800be
:1041f000a1e2a8008ed5bf000004e00005003a004f
:104200000000000081ce800000032000808f50005d
:10421000fbff3600881207000004e00002003200b5
:104220000000eb0060cf88000080fa00000006006c
:10423000809fbe00821f78003400f800000020003c
:10424000a00188000c00fa000040eb008cf5b700dc
:104250000040eb008df5b7008560a900219d21008d
:1042600091407800f0c3b30080cf500003003e00bf
:10427000d2d9bf000040e800d2f9b700a0ce80003c
:10428000e10f400003003200a0ce80000000e800f3
:10429000a0ce88008ed5bf000004e0002d003200c3
:1042a00000282000000f780071ce80001e007800ea
:1042b0001000780000017800818040002059210022
:1042c00000804000020878001e8fe80071ce800058
:1042d0001e00780010007800000178000180400086
:1042e000810c200080804000205921000080400087
:1042f000020878001e8fe80071ce80001e00780052
:1043000010007800000178000180400001192000b1
:104310008080400020592100008040000208780081
:104320001e8fe80070ce80000000e80070ce88008c
:1043300071ce800030062000808f500003023600ce
:104340000000eb0070ce880010c0b3008df5b70000
:10435000fe013700a1e2a900c0012000501588002d
:10436000212a20009140780030ccb30000c06000ca
:104370000034a000a2e2b700412a2000914078005a
:1043800000ccb30000c0600071c2b30001407000f7
:10439000a4e2b7000159210091407800d0c3b300d6
:1043a00080cf50000f003a00c00f20005015880049
:1043b000212a20009140780030ccb30000c060007a
:1043c0004041b300a2e2b700412a200091407800aa
:1043d00000ccb30000c060003041b300a4e2b700dd
:1043e0006b0037000159210091407800e0c3b30011
:1043f00080cf500032003a00212a200091407800fe
:1044000030ccb30000c060000044a000a2e2b700be
:10441000412a20009140780000ccb30000c0600029
:104420007041b300a4e2b7008fd5bf000080fb004d
:10443000500798005e009000e20f50001700320015
:10444000de009000e28f500007003c005e0090000c
:104450000000e0000b003200de009000e18f500011
:104460000b0032004a0037005e009000e30f50005e
:104470000d003200de009000e48f50000d0032008d
:1044800043003700c011210050158800400037005c
:10449000c0212200501588003d003700c041240093
:1044a000501588003a003700c08128005015880058
:1044b00037003700f0012000501588003400370025
:1044c00090d5bf00e24f500031003a00212a200071
:1044d0009140780030ccb30000c060000044a000e0
:1044e000a2e2b700412a20009140780000ccb3003e
:1044f00000c060007041b300a4e2b7008fd5bf00d8
:104500000080fb00400798004e009000e20f500032
:1045100017003200ce009000e28f500007003c00f0
:104520004e0090000000e0000b003200ce00900032
:10453000e18f50000b003200150037004e00900054
:10454000e30f50000d003200ce009000e48f5000c9
:104550000d0032000e003700c011210050158800f8
:104560000b003700c02122005015880008003700da
:10457000c04124005015880005003700c081280084
:104580005015880002003700f00120005015880007
:10459000a1e2a80000282000000f780001592100a6
:1045a00091407800f0c3b30080cf500003003a0080
:1045b0008fd5bf00e44f50003000320090d5bf00cf
:1045c000e34f500003003a008fd5bf00e44f500086
:1045d0002a00320071ce80001e00780010007800a2
:1045e00000017800818040002059210000804000b7
:1045f000020878001e8fe80071ce80001e0078004f
:10460000100078000001780001804000810c20003b
:10461000808040002059210000804000020878007e
:104620001e8fe80071ce80001e0078001000780018
:1046300000017800018040000119200080804000c6
:104640002059210000804000020878001e8fe800f9
:1046500070ce80000000e80070ce880071ce80002f
:1046600030062000808f5000040036000000eb0070
:1046700070ce880010c0b3008df5b700015921003d
:1046800091407800e0c3b30080cf500028003a008a
:1046900080ce80000000e80080ce880081ce8000bf
:1046a00010032000808f5000020036000000eb0055
:1046b00080ce880081ce80001e0078001000780037
:1046c0000001780081804000a07e21000080400031
:1046d000020878001e8fe80081ce80001e0078005e
:1046e00010007800000178000180400041062000a1
:1046f00080804000a07e21000080400002087800f9
:104700001e8fe80081ce80001e0078001000780027
:104710000001780001804000810c20008080400072
:10472000a07e21000080400002087800f5003700dc
:104730000159210091407800f0c3b30080cf5000b0
:104740006f003a008fd5bf000080fb003007980053
:104750003e009000e20f500023003200be009000a7
:10476000e28f500007003c003e0090000000e00097
:104770000b003200be009000e18f500011003200ab
:10478000e00037003e009000e30f50001f003200b1
:10479000be009000e48f500025003200d9003700a1
:1047a0001e00780010007800b0c888001e8fe80056
:1047b0001e00780010007800f0c88800e2e2a8002f
:1047c000d00037001e00780010007800c0c88800b4
:1047d0001e8fe8001e0078001000780000c98800d5
:1047e000e302a800c70037001e0078001000780020
:1047f000d0c888001e8fe8001e00780010007800e6
:1048000010c98800e802a800be0037001e0078002a
:1048100010007800e0c888001e8fe8001e007800b5
:104820001000780020c98800e822a800b5003700f1
:104830001e0078001000780040c988001e8fe80034
:104840001e0078001000780030c988001e8fe80034
:1048500071ce80001e007800100078000001780002
:10486000818040002059210000804000020878002b
:104870001e8fe80071ce80001e00780010007800c6
:104880000001780001804000810c20008080400001
:104890002059210000804000020878001e8fe800a7
:1048a00071ce80001e0078001000780000017800b2
:1048b0000180400001192000808040002059210023
:1048c000008040000208780070ce80000000e80000
:1048d00070ce880071ce800030062000808f50009e
:1048e000040036000000eb0070ce880010c0b3005a
:1048f0008df5b700d042a800d022a8008100370073
:1049000090d5bf00e34f50007e003a008fd5bf0026
:104910000080fb00200798002e009000e20f50005e
:1049200027003200ae009000e28f500007003c00ec
:104930002e0090000000e0000b003200ae0090005e
:10494000e18f5000130032006e0037002e009000ff
:10495000e30f500025003200ae009000e48f5000bd
:1049600033003200670037001e0078001000780026
:1049700050c988001e8fe8001e00780010007800e3
:1049800090c98800e2e2a90010c0b3008ff5b7001b
:104990005c0037001e0078001000780060c98800b5
:1049a0001e8fe8001e00780010007800a0c9880063
:1049b000e302a90020c0b3008ff5b7005100370013
:1049c0001e0078001000780070c988001e8fe80073
:1049d0001e00780010007800b0c98800e802a90025
:1049e00030c0b3008ff5b700460037001e007800d6
:1049f0001000780080c988001e8fe8001e00780033
:104a000010007800c0c98800e822a900f0c9800021
:104a1000ea0f500003003a0040c0b3008ff5b70022
:104a2000380037000040eb008ff5b7003500370045
:104a30001e00780010007800e0c988001e8fe80092
:104a40001e00780010007800d0c988001e8fe80092
:104a5000d042a900d022a9000040eb008ff5b7009a
:104a600071ce80001e0078001000780000017800f0
:104a70008180400020592100008040000208780019
:104a80001e8fe80071ce80001e00780010007800b4
:104a90000001780001804000810c200080804000ef
:104aa0002059210000804000020878001e8fe80095
:104ab00071ce80001e0078001000780000017800a0
:104ac0000180400001192000808040002059210011
:104ad000008040000208780070ce80000000e800ee
:104ae00070ce880071ce800030062000808f50008c
:104af000040036000000eb0070ce880010c0b30048
:104b00008df5b70090d5bf00304798008040eb008e
:104b100021479800f0c3b300be40900080cf500002
:104b20000200360010c0b30020479800be4090003d
:104b30000140e80090f5b7002e4090000004e0002e
:104b4000020032000040eb0090f5b70010c0b30047
:104b50008cf5b7000080fa003400f9004f017800ae
:104b60004f00be00004006000000fa008cd5bf00d8
:104b70000080fb000080fa00000006000000fa0040
:104b80008dd5bf000080fb000080fa000000060009
:104b90000000fa00a1e2a8000080fa000000060070
:104ba0000000fa00a1e2a9000080fa00000006005f
:104bb0000000fa0060ce80001506070010ce8800c5
:104bc00021ce88004d04070010ce800021ce800049
:104bd0006011b80090ef07000000e00001003c0009
:104be0007900370010ce800021ce80000200200026
:104bf000831d240088ef07000000e00001003c0056
:104c00000b003700110020000000eb003e020700ff
:104c100010ce800021ce80000200200083252400d9
:104c20007def07000000e00004003c000e003700ac
:104c30000040eb00c6f9b700db0037001100200090
:104c4000700020003002070010ce800021ce8000ce
:104c500002002000232a24006fef07000000e0007c
:104c600004003c000e0037000040eb00c6f9b7001e
:104c7000cd00370011002000600020002202070054
:104c800010ce800021ce800002002000832d240061
:104c900061ef07000000e00004003c000e00370058
:104ca0000040eb00c6f9b700bf003700110020003c
:104cb000500020001402070010ce800021ce80009a
:104cc000020020007330240053ef07000000e000d2
:104cd00004003c000e0037000040eb00c6f9b700ae
:104ce000b10037001100200040002000060207003c
:104cf00010ce800021ce800002002000233224004c
:104d000045ef07000000e00004003c000e00370003
:104d10000040eb00c6f9b700a300370011002000e7
:104d200030002000f801070010ce800021ce800066
:104d300002002000d333240037ef07000000e0001a
:104d400004003c000e0037000040eb00c6f9b7003d
:104d5000950037001100200020002000ea01070024
:104d600010ce800021ce8000020020008335240078
:104d700029ef07000000e00004003c000f003700ae
:104d80000040eb00c6f9b700870037001100200093
:104d900010002000dc010700c6d9bf000004e000bd
:104da00081003a0080cf80000000e000fdff3a0063
:104db00010c0b300c6f9b7007b0037000040eb001d
:104dc000c6f9b7007800370010ce800021ce8000f1
:104dd00002002000831d2c001aee07000000e000f6
:104de000010035000b003700110020000000eb002f
:104df000c501070010ce800021ce800002002000f7
:104e000083252c000fee07000000e00004003500b1
:104e10000e0037000040eb00c6f9b7006200370013
:104e20001100200010002000b701070010ce800004
:104e300021ce800002002000232a2c0001ee070072
:104e40000000e000040035000e0037000040eb00d9
:104e5000c6f9b700540037001100200020002000e0
:104e6000a901070010ce800021ce800002002000a2
:104e7000832d2c00f3ed07000000e0000400350056
:104e80000e0037000040eb00c6f9b70046003700bf
:104e900011002000300020009b01070010ce800090
:104ea00021ce80000200200073302c00e5ed0700c9
:104eb0000000e000040035000e0037000040eb0069
:104ec000c6f9b7003800370011002000400020006c
:104ed0008d01070010ce800021ce8000020020004e
:104ee00023322c00d7ed07000000e000040035005d
:104ef0000e0037000040eb00c6f9b7002a0037006b
:104f000011002000500020007f01070010ce80001b
:104f100021ce800002002000d3332c00c9ed070011
:104f20000000e000040035000e0037000040eb00f8
:104f3000c6f9b7001c0037001100200060002000f7
:104f40007101070010ce800021ce800002002000f9
:104f500083352c00bbed07000000e00004003500a5
:104f60000f0037000040eb00c6f9b7000e00370015
:104f7000110020007000200063010700c6d9bf00a7
:104f80000004e00008003a0080cf80000000e0004c
:104f9000fdff3a0010c0b300c6f9b70002003700a9
:104fa0000040eb00c6f9b7000080fa0000000600e0
:104fb0000000fa0050ce80001505070010ce8800d2
:104fc00021ce88004d03070010ce800021ce800046
:104fd0006011b80090ee07000000e00001003c0006
:104fe0003c00370010ce800021ce8000020020005f
:104ff000a333240088ee07000000e00001003c001d
:105000001200370011002000600020003e01070060
:1050100011002000700020003b010700110020005b
:105020000000eb00380107001100200010002000f4
:105030003501070011002000200020003201070088
:10504000100020000d0307005d00370010ce800027
:1050500021ce800002002000832f24006eee070086
:105060000000e00001003c000c00370011002000af
:105070007000200024010700110020000000eb0058
:105080002101070011002000100020001e01070070
:105090000000eb00f90207004900370010ce800045
:1050a00021ce800002002000832724005aee070052
:1050b0000000e00001003c0041003700110020002a
:1050c0000000eb00100107000000eb00eb020700fe
:1050d0003b00370010ce800021ce8000020020006f
:1050e000a3332c0057ed07000000e000010035005d
:1050f00012003700110020006000200002010700ac
:105100001100200050002000ff00070011002000c7
:1051100040002000fc0007001100200030002000ab
:10512000f90007001100200020002000f600070011
:1051300010002000d10207002100370010ce8000af
:1051400021ce800002002000832f2c003ded0700bf
:105150000000e000010035000c00370011002000c5
:1051600050002000e800070011002000400020004f
:10517000e50007001100200030002000e2000700d9
:105180000000eb00bd0207000d00370010ce8000cc
:1051900021ce80000200200083272c0029ed07008b
:1051a0000000e0000100350005003700110020007c
:1051b00040002000d40007000000eb00af02070011
:1051c0000080fa00000006000000fa0040ce8000d7
:1051d0008f04070010ce880021ce8800c702070088
:1051e00010ce800021ce80006011b8000aee0700ca
:1051f0000000e00001003c003c00370010ce8000c1
:1052000021ce800002002000a333240002ee07001c
:105210000000e00001003c001200370011002000f7
:105220000000eb00b8000700110020001000200073
:10523000b50007001100200020002000b200070088
:105240001100200030002000af00070011002000f6
:1052500040002000ac00070010002000670207009b
:105260005d00370010ce800021ce800002002000bb
:10527000832f2400e8ed07000000e00001003c005f
:105280000c00370011002000100020009e000700d5
:1052900011002000200020009b00070011002000ca
:1052a00030002000980007000000eb0053020700c8
:1052b0004900370010ce800021ce8000020020007f
:1052c00083272400d4ed07000000e00001003c002b
:1052d0004100370011002000200020008a00070054
:1052e0000000eb00450207003b00370010ce8000b5
:1052f00021ce800002002000a3332c00d1ec070057
:105300000000e0000100350012003700110020000d
:105310000000eb007c00070011002000700020005e
:1053200079000700110020006000200076000700cf
:105330001100200050002000730007001100200021
:105340004000200070000700100020002b02070022
:105350002100370010ce800021ce80000200200006
:10536000832f2c00b7ec07000000e000010035009f
:105370000c003700110020007000200062000700c0
:1053800011002000600020005f00070011002000d5
:10539000500020005c0007000000eb00170207002f
:1053a0000d00370010ce800021ce800002002000ca
:1053b00083272c00a3ec07000000e000010035006b
:1053c0000500370011002000600020004e0007009b
:1053d0000000eb00090207000080fa000000060050
:1053e0000a00fa000000eb00100798000040eb00f4
:1053f000004f780000003700c29c2100a19c2100d2
:10540000809c21004903070040ce800010079800cf
:105410001e0090000000e00003003d001e00900010
:105420000000ea00100798000040eb00004f7800f1
:1054300050ce8000400798004e0090000000e00031
:1054400003003d00ce0090008100ea004107980073
:105450001e009000ce009000808f50000a003400a3
:1054600050ce8000100798001e0090000000e00061
:1054700003003d001e0090000000ea0010079800a5
:1054800010c0b300004f780060ce80003007980055
:105490003e0090000000e00003003d00be009000d0
:1054a0008100ea00310798001e009000be009000c5
:1054b000808f50000200340020c0b300004f7800fd
:1054c0001e80fb0020079800ae009000e18f500086
:1054d000090032002e009000e20f50000800320058
:1054e000ae0090000100e00001003200c2ff370072
:1054f00035ff0700c0ff3700adfe0700beff3700d5
:10550000abfd0700bcff37000600fa00000f780073
:10551000110798001e007800200798002e009000c8
:10552000e30f5000670032002e009000e30f5000a0
:1055300007003e002e009000e10f50002e003200c8
:105540002e009000e10f500041003e000d0037009a
:105550002e009000e50f5000940032002e009000c5
:10556000e50f5000740039002e009000e60f500047
:10557000ab0032002e009000e70f5000c500320053
:10558000da0037001e009000e10f50000f003600d7
:10559000c4c2bf000080fb004600de006140600026
:1055a0000004a20061406000614060004601dd002f
:1055b000412c200091407800f0cbb30000c0600087
:1055c00002407000c4e2b7008a0137001e0090005c
:1055d00061406000614060004601dd00412c200018
:1055e00091407800f0cbb30000c060000240700032
:1055f000c4e2b7007f0137001e009000e10f5000a9
:105600000b003600c4c2bf000080fb004700de0074
:105610000004a20061406000c700dd00c4c2bf00fa
:105620000074a10001407000c4e2b70071013700ae
:105630001e00900061406000c700dd00c4c2bf00d2
:105640000074a10001407000c4e2b7006901370096
:105650001e009000e10f50000f003600c5c2bf00d1
:105660000080fb000000d100614060000004a20047
:10567000614060006140600000414000512c20000a
:1056800091407800d0cfb30000c0600002407000ad
:10569000c5e2b700570137001e009000614060006e
:1056a0006140600000414000512c20009140780092
:1056b000d0cfb30000c0600002407000c5e2b70068
:1056c0004c0137001e009000e10f50000f00360023
:1056d000c5c2bf000080fb004400de0061406000e6
:1056e0000004a20061406000614060004401dd00f0
:1056f000512c200091407800f0ceb30000c0600033
:1057000002407000c5e2b7003a0137001e00900069
:1057100061406000614060004401dd00512c2000c8
:1057200091407800f0ceb30000c0600002407000ed
:10573000c5e2b7002f0137001e009000e10f5000b6
:105740000f003600c5c2bf000080fb004200de0033
:10575000614060000004a2006140600061406000a0
:105760004201dd00512c200091407800b0cfb30001
:1057700000c0600002407000c5e2b7001d013700a4
:105780001e00900061406000614060004201dd0049
:10579000512c200091407800b0cfb30000c06000d1
:1057a00002407000c5e2b700120137001e009000f1
:1057b000e10f50000f003600c5c2bf000080fb00a3
:1057c0004500de00614060000004a200614060000e
:1057d000614060004501dd00512c200091407800bf
:1057e000f0cdb30000c0600002407000c5e2b70019
:1057f000000137001e0090006140600061406000c1
:105800004501dd00512c200091407800f0cdb3001f
:1058100000c0600002407000c5e2b700f50037002c
:105820001e009000e10f50000f003600c5c2bf00ff
:105830000080fb004600de00614060000004a20022
:1058400061406000614060004601dd00512c200095
:1058500091407800f0cbb30000c0600002407000bf
:10586000c5e2b700e30037001e0090006140600011
:10587000614060004601dd00512c2000914078001d
:10588000f0cbb30000c0600002407000c5e2b7007a
:10589000d80037001e009000e10f50000b003600ca
:1058a000c5c2bf000080fb004700de000004a2006c
:1058b00061406000c700dd00c5c2bf000074a100e8
:1058c00001407000c5e2b700ca0037001e0090001a
:1058d00061406000c700dd00c5c2bf000074a100c8
:1058e00001407000c5e2b700c20037001e00900002
:1058f000e10f500069003600c4c2bf000080fb0009
:105900004600de00614060000004a20061406000cb
:10591000614060004601dd00412c2000914078008c
:10592000f0cbb30000c0600002407000c4e2b700da
:10593000c4c2bf000080fb004700de000004a200dc
:1059400061406000c700dd00c4c2bf000074a10058
:1059500001407000c4e2b700c5c2bf000080fb0078
:105960000000d100614060000004a20061406000be
:105970006140600000414000512c200091407800bf
:10598000d0cfb30000c0600002407000c5e2b70095
:10599000c5c2bf000080fb004400de006140600023
:1059a0000004a20061406000614060004401dd002d
:1059b000512c200091407800f0ceb30000c0600070
:1059c00002407000c5e2b700c5c2bf000080fb0006
:1059d0004200de00614060000004a20061406000ff
:1059e000614060004201dd00512c200091407800b0
:1059f000b0cfb30000c0600002407000c5e2b70045
:105a0000c5c2bf000080fb004500de0061406000b1
:105a10000004a20061406000614060004501dd00bb
:105a2000512c200091407800f0cdb30000c0600000
:105a300002407000c5e2b700c5c2bf000080fb0095
:105a40004600de00614060000004a200614060008a
:105a5000614060004601dd00512c2000914078003b
:105a6000f0cbb30000c0600002407000c5e2b70098
